{
  "_format": "hh-sol-artifact-1",
  "contractName": "Marketplace",
  "sourceName": "contracts/Marketplace.sol",
  "abi": [
    {
      "inputs": [],
      "stateMutability": "nonpayable",
      "type": "constructor"
    },
    {
      "anonymous": false,
      "inputs": [
        {
          "indexed": false,
          "internalType": "uint256",
          "name": "itemId",
          "type": "uint256"
        },
        {
          "indexed": true,
          "internalType": "address",
          "name": "nft",
          "type": "address"
        },
        {
          "indexed": false,
          "internalType": "uint256",
          "name": "tokenId",
          "type": "uint256"
        },
        {
          "indexed": false,
          "internalType": "uint256",
          "name": "price",
          "type": "uint256"
        },
        {
          "indexed": true,
          "internalType": "address",
          "name": "seller",
          "type": "address"
        }
      ],
      "name": "Offered",
      "type": "event"
    },
    {
      "inputs": [
        {
          "internalType": "uint256",
          "name": "_amount",
          "type": "uint256"
        },
        {
          "internalType": "uint256",
          "name": "_unlockTimestamp",
          "type": "uint256"
        }
      ],
      "name": "calculateDiscount",
      "outputs": [
        {
          "internalType": "uint256",
          "name": "",
          "type": "uint256"
        }
      ],
      "stateMutability": "view",
      "type": "function"
    },
    {
      "inputs": [
        {
          "internalType": "uint256",
          "name": "itemId",
          "type": "uint256"
        }
      ],
      "name": "checkActive",
      "outputs": [],
      "stateMutability": "nonpayable",
      "type": "function"
    },
    {
      "inputs": [
        {
          "internalType": "address",
          "name": "",
          "type": "address"
        }
      ],
      "name": "discountPercent",
      "outputs": [
        {
          "internalType": "uint256",
          "name": "",
          "type": "uint256"
        }
      ],
      "stateMutability": "view",
      "type": "function"
    },
    {
      "inputs": [],
      "name": "feeAccount",
      "outputs": [
        {
          "internalType": "address payable",
          "name": "",
          "type": "address"
        }
      ],
      "stateMutability": "view",
      "type": "function"
    },
    {
      "inputs": [
        {
          "internalType": "uint256",
          "name": "itemId",
          "type": "uint256"
        }
      ],
      "name": "getItemDetail",
      "outputs": [
        {
          "components": [
            {
              "internalType": "uint256",
              "name": "itemId",
              "type": "uint256"
            },
            {
              "internalType": "uint256",
              "name": "price",
              "type": "uint256"
            },
            {
              "internalType": "address",
              "name": "owner",
              "type": "address"
            },
            {
              "internalType": "string",
              "name": "name",
              "type": "string"
            },
            {
              "internalType": "string",
              "name": "registrationNumber",
              "type": "string"
            },
            {
              "internalType": "uint256",
              "name": "timestamp",
              "type": "uint256"
            },
            {
              "internalType": "uint256",
              "name": "duration",
              "type": "uint256"
            },
            {
              "internalType": "bool",
              "name": "active",
              "type": "bool"
            }
          ],
          "internalType": "struct Marketplace.Details",
          "name": "",
          "type": "tuple"
        }
      ],
      "stateMutability": "view",
      "type": "function"
    },
    {
      "inputs": [
        {
          "internalType": "uint256",
          "name": "itemId",
          "type": "uint256"
        }
      ],
      "name": "getMessageNFT",
      "outputs": [
        {
          "components": [
            {
              "internalType": "address",
              "name": "customer",
              "type": "address"
            },
            {
              "internalType": "uint256",
              "name": "itemId",
              "type": "uint256"
            },
            {
              "internalType": "uint256",
              "name": "price",
              "type": "uint256"
            },
            {
              "internalType": "string",
              "name": "reason",
              "type": "string"
            }
          ],
          "internalType": "struct Marketplace.message[]",
          "name": "",
          "type": "tuple[]"
        }
      ],
      "stateMutability": "view",
      "type": "function"
    },
    {
      "inputs": [],
      "name": "getMessageOwner",
      "outputs": [
        {
          "components": [
            {
              "internalType": "address",
              "name": "customer",
              "type": "address"
            },
            {
              "internalType": "uint256",
              "name": "itemId",
              "type": "uint256"
            },
            {
              "internalType": "uint256",
              "name": "price",
              "type": "uint256"
            },
            {
              "internalType": "string",
              "name": "reason",
              "type": "string"
            }
          ],
          "internalType": "struct Marketplace.message[]",
          "name": "",
          "type": "tuple[]"
        }
      ],
      "stateMutability": "view",
      "type": "function"
    },
    {
      "inputs": [
        {
          "internalType": "address",
          "name": "_user",
          "type": "address"
        }
      ],
      "name": "getUserLocks",
      "outputs": [
        {
          "components": [
            {
              "internalType": "uint256",
              "name": "amount",
              "type": "uint256"
            },
            {
              "internalType": "uint256",
              "name": "unlockTimestamp",
              "type": "uint256"
            },
            {
              "internalType": "bool",
              "name": "unlocked",
              "type": "bool"
            }
          ],
          "internalType": "struct Marketplace.Lock[]",
          "name": "",
          "type": "tuple[]"
        }
      ],
      "stateMutability": "view",
      "type": "function"
    },
    {
      "inputs": [],
      "name": "itemCount",
      "outputs": [
        {
          "internalType": "uint256",
          "name": "",
          "type": "uint256"
        }
      ],
      "stateMutability": "view",
      "type": "function"
    },
    {
      "inputs": [
        {
          "internalType": "uint256",
          "name": "",
          "type": "uint256"
        }
      ],
      "name": "itemDetails",
      "outputs": [
        {
          "internalType": "uint256",
          "name": "itemId",
          "type": "uint256"
        },
        {
          "internalType": "uint256",
          "name": "price",
          "type": "uint256"
        },
        {
          "internalType": "address",
          "name": "owner",
          "type": "address"
        },
        {
          "internalType": "string",
          "name": "name",
          "type": "string"
        },
        {
          "internalType": "string",
          "name": "registrationNumber",
          "type": "string"
        },
        {
          "internalType": "uint256",
          "name": "timestamp",
          "type": "uint256"
        },
        {
          "internalType": "uint256",
          "name": "duration",
          "type": "uint256"
        },
        {
          "internalType": "bool",
          "name": "active",
          "type": "bool"
        }
      ],
      "stateMutability": "view",
      "type": "function"
    },
    {
      "inputs": [
        {
          "internalType": "uint256",
          "name": "",
          "type": "uint256"
        }
      ],
      "name": "items",
      "outputs": [
        {
          "internalType": "uint256",
          "name": "itemId",
          "type": "uint256"
        },
        {
          "internalType": "contract IERC721",
          "name": "nft",
          "type": "address"
        },
        {
          "internalType": "uint256",
          "name": "tokenId",
          "type": "uint256"
        },
        {
          "internalType": "uint256",
          "name": "price",
          "type": "uint256"
        },
        {
          "internalType": "address payable",
          "name": "seller",
          "type": "address"
        },
        {
          "internalType": "bool",
          "name": "active",
          "type": "bool"
        }
      ],
      "stateMutability": "view",
      "type": "function"
    },
    {
      "inputs": [
        {
          "internalType": "uint256",
          "name": "_amount",
          "type": "uint256"
        },
        {
          "internalType": "uint256",
          "name": "_lockDuration",
          "type": "uint256"
        }
      ],
      "name": "lockTokens",
      "outputs": [],
      "stateMutability": "nonpayable",
      "type": "function"
    },
    {
      "inputs": [
        {
          "internalType": "contract IERC721",
          "name": "_nft",
          "type": "address"
        },
        {
          "internalType": "uint256",
          "name": "tokenId",
          "type": "uint256"
        },
        {
          "internalType": "uint256",
          "name": "price",
          "type": "uint256"
        },
        {
          "internalType": "string",
          "name": "name",
          "type": "string"
        },
        {
          "internalType": "string",
          "name": "rNo",
          "type": "string"
        },
        {
          "internalType": "uint256",
          "name": "duration",
          "type": "uint256"
        }
      ],
      "name": "makeItem",
      "outputs": [],
      "stateMutability": "nonpayable",
      "type": "function"
    },
    {
      "inputs": [
        {
          "internalType": "address",
          "name": "",
          "type": "address"
        },
        {
          "internalType": "uint256",
          "name": "",
          "type": "uint256"
        }
      ],
      "name": "messages",
      "outputs": [
        {
          "internalType": "address",
          "name": "customer",
          "type": "address"
        },
        {
          "internalType": "uint256",
          "name": "itemId",
          "type": "uint256"
        },
        {
          "internalType": "uint256",
          "name": "price",
          "type": "uint256"
        },
        {
          "internalType": "string",
          "name": "reason",
          "type": "string"
        }
      ],
      "stateMutability": "view",
      "type": "function"
    },
    {
      "inputs": [
        {
          "internalType": "uint256",
          "name": "",
          "type": "uint256"
        },
        {
          "internalType": "uint256",
          "name": "",
          "type": "uint256"
        }
      ],
      "name": "messagesNFT",
      "outputs": [
        {
          "internalType": "address",
          "name": "customer",
          "type": "address"
        },
        {
          "internalType": "uint256",
          "name": "itemId",
          "type": "uint256"
        },
        {
          "internalType": "uint256",
          "name": "price",
          "type": "uint256"
        },
        {
          "internalType": "string",
          "name": "reason",
          "type": "string"
        }
      ],
      "stateMutability": "view",
      "type": "function"
    },
    {
      "inputs": [
        {
          "internalType": "uint256",
          "name": "itemId",
          "type": "uint256"
        },
        {
          "internalType": "uint256",
          "name": "claimPrice",
          "type": "uint256"
        }
      ],
      "name": "requestClaim",
      "outputs": [],
      "stateMutability": "nonpayable",
      "type": "function"
    },
    {
      "inputs": [],
      "name": "returnRate",
      "outputs": [
        {
          "internalType": "uint256",
          "name": "",
          "type": "uint256"
        }
      ],
      "stateMutability": "view",
      "type": "function"
    },
    {
      "inputs": [
        {
          "internalType": "uint256",
          "name": "itemId",
          "type": "uint256"
        },
        {
          "internalType": "address",
          "name": "customer",
          "type": "address"
        },
        {
          "internalType": "uint256",
          "name": "claimPrice",
          "type": "uint256"
        }
      ],
      "name": "sendClaim",
      "outputs": [
        {
          "internalType": "bool",
          "name": "",
          "type": "bool"
        }
      ],
      "stateMutability": "nonpayable",
      "type": "function"
    },
    {
      "inputs": [],
      "name": "unit",
      "outputs": [
        {
          "internalType": "uint256",
          "name": "",
          "type": "uint256"
        }
      ],
      "stateMutability": "view",
      "type": "function"
    },
    {
      "inputs": [],
      "name": "unlockTokens",
      "outputs": [],
      "stateMutability": "nonpayable",
      "type": "function"
    },
    {
      "inputs": [
        {
          "internalType": "address",
          "name": "",
          "type": "address"
        },
        {
          "internalType": "uint256",
          "name": "",
          "type": "uint256"
        }
      ],
      "name": "userLocks",
      "outputs": [
        {
          "internalType": "uint256",
          "name": "amount",
          "type": "uint256"
        },
        {
          "internalType": "uint256",
          "name": "unlockTimestamp",
          "type": "uint256"
        },
        {
          "internalType": "bool",
          "name": "unlocked",
          "type": "bool"
        }
      ],
      "stateMutability": "view",
      "type": "function"
    }
  ],
  "bytecode": "0x6080604052670de0b6b3a764000060045534801561001c57600080fd5b50600160008190555033600160006101000a81548173ffffffffffffffffffffffffffffffffffffffff021916908373ffffffffffffffffffffffffffffffffffffffff160217905550734caab96b2e442e78ca5fc72faed2305de115fb36600360006101000a81548173ffffffffffffffffffffffffffffffffffffffff021916908373ffffffffffffffffffffffffffffffffffffffff160217905550612f7a806100ca6000396000f3fe608060405234801561001057600080fd5b50600436106101375760003560e01c806385b2461b116100b8578063aa33fedb1161007c578063aa33fedb1461036c578063bfb231d21461039e578063c45d9bea146103d3578063c8d7dc7314610406578063dfdefa8214610436578063f968f4931461046657610137565b806385b2461b146102c757806389158d8e146102e3578063907af6c0146102ff5780639c39bf4c1461031d578063a3da02611461035057610137565b80636592780f116100ff5780636592780f1461021f57806365e17c9d1461024f5780636a75320b1461026d5780636bfb0d011461028b5780637c2ffbb3146102a957610137565b80631fb4e3f01461013c57806323a35de91461017357806346a16890146101a35780634d2af2b2146101bf5780635164b3b8146101ef575b600080fd5b61015660048036038101906101519190611d34565b610470565b60405161016a989796959493929190611e5c565b60405180910390f35b61018d60048036038101906101889190611f14565b6105f5565b60405161019a9190612050565b60405180910390f35b6101bd60048036038101906101b89190612072565b6106c2565b005b6101d960048036038101906101d49190612072565b610886565b6040516101e691906120b2565b60405180910390f35b61020960048036038101906102049190611d34565b6108da565b60405161021691906121dd565b60405180910390f35b61023960048036038101906102349190611d34565b610ac5565b6040516102469190612324565b60405180910390f35b610257610c33565b6040516102649190612367565b60405180910390f35b610275610c59565b6040516102829190612324565b60405180910390f35b610293610df1565b6040516102a091906120b2565b60405180910390f35b6102b1610df7565b6040516102be91906120b2565b60405180910390f35b6102e160048036038101906102dc91906124f5565b610dfc565b005b6102fd60048036038101906102f89190612072565b6111b3565b005b610307611400565b60405161031491906120b2565b60405180910390f35b61033760048036038101906103329190612072565b611406565b60405161034794939291906125ba565b60405180910390f35b61036a60048036038101906103659190611d34565b6114fb565b005b61038660048036038101906103819190612606565b61159b565b60405161039593929190612646565b60405180910390f35b6103b860048036038101906103b39190611d34565b6115ef565b6040516103ca969594939291906126dc565b60405180910390f35b6103ed60048036038101906103e89190612606565b611678565b6040516103fd94939291906125ba565b60405180910390f35b610420600480360381019061041b9190611f14565b61176d565b60405161042d91906120b2565b60405180910390f35b610450600480360381019061044b919061273d565b611785565b60405161045d9190612790565b60405180910390f35b61046e611a8c565b005b600a6020528060005260406000206000915090508060000154908060010154908060020160009054906101000a900473ffffffffffffffffffffffffffffffffffffffff16908060030180546104c5906127da565b80601f01602080910402602001604051908101604052809291908181526020018280546104f1906127da565b801561053e5780601f106105135761010080835404028352916020019161053e565b820191906000526020600020905b81548152906001019060200180831161052157829003601f168201915b505050505090806004018054610553906127da565b80601f016020809104026020016040519081016040528092919081815260200182805461057f906127da565b80156105cc5780601f106105a1576101008083540402835291602001916105cc565b820191906000526020600020905b8154815290600101906020018083116105af57829003601f168201915b5050505050908060050154908060060154908060070160009054906101000a900460ff16905088565b6060600560008373ffffffffffffffffffffffffffffffffffffffff1673ffffffffffffffffffffffffffffffffffffffff168152602001908152602001600020805480602002602001604051908101604052809291908181526020016000905b828210156106b7578382906000526020600020906003020160405180606001604052908160008201548152602001600182015481526020016002820160009054906101000a900460ff16151515158152505081526020019060010190610656565b505050509050919050565b6009600083815260200190815260200160002060040160009054906101000a900473ffffffffffffffffffffffffffffffffffffffff1673ffffffffffffffffffffffffffffffffffffffff163373ffffffffffffffffffffffffffffffffffffffff161461073057600080fd5b600060405180608001604052803373ffffffffffffffffffffffffffffffffffffffff168152602001848152602001838152602001604051806060016040528060228152602001612ef660229139815250905060076000600160009054906101000a900473ffffffffffffffffffffffffffffffffffffffff1673ffffffffffffffffffffffffffffffffffffffff1673ffffffffffffffffffffffffffffffffffffffff16815260200190815260200160002081908060018154018082558091505060019003906000526020600020906004020160009091909190915060008201518160000160006101000a81548173ffffffffffffffffffffffffffffffffffffffff021916908373ffffffffffffffffffffffffffffffffffffffff1602179055506020820151816001015560408201518160020155606082015181600301908161087e91906129ad565b505050505050565b6000806201518042846108999190612aae565b6108a39190612b11565b90506000600a82106108b857600a90506108cf565b600582106108c957600590506108ce565b600090505b5b809250505092915050565b6108e2611c8d565b600a60008381526020019081526020016000206040518061010001604052908160008201548152602001600182015481526020016002820160009054906101000a900473ffffffffffffffffffffffffffffffffffffffff1673ffffffffffffffffffffffffffffffffffffffff1673ffffffffffffffffffffffffffffffffffffffff16815260200160038201805461097b906127da565b80601f01602080910402602001604051908101604052809291908181526020018280546109a7906127da565b80156109f45780601f106109c9576101008083540402835291602001916109f4565b820191906000526020600020905b8154815290600101906020018083116109d757829003601f168201915b50505050508152602001600482018054610a0d906127da565b80601f0160208091040260200160405190810160405280929190818152602001828054610a39906127da565b8015610a865780601f10610a5b57610100808354040283529160200191610a86565b820191906000526020600020905b815481529060010190602001808311610a6957829003601f168201915b5050505050815260200160058201548152602001600682015481526020016007820160009054906101000a900460ff1615151515815250509050919050565b606060086000838152602001908152602001600020805480602002602001604051908101604052809291908181526020016000905b82821015610c2857838290600052602060002090600402016040518060800160405290816000820160009054906101000a900473ffffffffffffffffffffffffffffffffffffffff1673ffffffffffffffffffffffffffffffffffffffff1673ffffffffffffffffffffffffffffffffffffffff1681526020016001820154815260200160028201548152602001600382018054610b97906127da565b80601f0160208091040260200160405190810160405280929190818152602001828054610bc3906127da565b8015610c105780601f10610be557610100808354040283529160200191610c10565b820191906000526020600020905b815481529060010190602001808311610bf357829003601f168201915b50505050508152505081526020019060010190610afa565b505050509050919050565b600160009054906101000a900473ffffffffffffffffffffffffffffffffffffffff1681565b6060600760003373ffffffffffffffffffffffffffffffffffffffff1673ffffffffffffffffffffffffffffffffffffffff168152602001908152602001600020805480602002602001604051908101604052809291908181526020016000905b82821015610de857838290600052602060002090600402016040518060800160405290816000820160009054906101000a900473ffffffffffffffffffffffffffffffffffffffff1673ffffffffffffffffffffffffffffffffffffffff1673ffffffffffffffffffffffffffffffffffffffff1681526020016001820154815260200160028201548152602001600382018054610d57906127da565b80601f0160208091040260200160405190810160405280929190818152602001828054610d83906127da565b8015610dd05780601f10610da557610100808354040283529160200191610dd0565b820191906000526020600020905b815481529060010190602001808311610db357829003601f168201915b50505050508152505081526020019060010190610cba565b50505050905090565b60025481565b600581565b610e04611c34565b60008411610e47576040517f08c379a0000000000000000000000000000000000000000000000000000000008152600401610e3e90612b8e565b60405180910390fd5b60026000815480929190610e5a90612bae565b91905055508573ffffffffffffffffffffffffffffffffffffffff166323b872dd3330886040518463ffffffff1660e01b8152600401610e9c93929190612bf6565b600060405180830381600087803b158015610eb657600080fd5b505af1158015610eca573d6000803e3d6000fd5b505050506040518060c0016040528060025481526020018773ffffffffffffffffffffffffffffffffffffffff1681526020018681526020018581526020013373ffffffffffffffffffffffffffffffffffffffff168152602001600115158152506009600060025481526020019081526020016000206000820151816000015560208201518160010160006101000a81548173ffffffffffffffffffffffffffffffffffffffff021916908373ffffffffffffffffffffffffffffffffffffffff160217905550604082015181600201556060820151816003015560808201518160040160006101000a81548173ffffffffffffffffffffffffffffffffffffffff021916908373ffffffffffffffffffffffffffffffffffffffff16021790555060a08201518160040160146101000a81548160ff02191690831515021790555090505060405180610100016040528060025481526020018581526020013373ffffffffffffffffffffffffffffffffffffffff16815260200184815260200183815260200142815260200182815260200160011515815250600a60006002548152602001908152602001600020600082015181600001556020820151816001015560408201518160020160006101000a81548173ffffffffffffffffffffffffffffffffffffffff021916908373ffffffffffffffffffffffffffffffffffffffff16021790555060608201518160030190816110ea91906129ad565b50608082015181600401908161110091906129ad565b5060a0820151816005015560c0820151816006015560e08201518160070160006101000a81548160ff0219169083151502179055509050503373ffffffffffffffffffffffffffffffffffffffff168673ffffffffffffffffffffffffffffffffffffffff167f655a0cf9c8db81512be9a76dc1c5ae5380b8816ce6ad659cd61b715e2999d59a600254888860405161119b93929190612c2d565b60405180910390a36111ab611c83565b505050505050565b600082116111f6576040517f08c379a00000000000000000000000000000000000000000000000000000000081526004016111ed90612cb0565b60405180910390fd5b60008111611239576040517f08c379a000000000000000000000000000000000000000000000000000000000815260040161123090612d42565b60405180910390fd5b600081426112479190612d62565b905060006112558483610886565b905080600660003373ffffffffffffffffffffffffffffffffffffffff1673ffffffffffffffffffffffffffffffffffffffff16815260200190815260200160002081905550600360009054906101000a900473ffffffffffffffffffffffffffffffffffffffff1673ffffffffffffffffffffffffffffffffffffffff166323b872dd3330876040518463ffffffff1660e01b81526004016112fa93929190612bf6565b6020604051808303816000875af1158015611319573d6000803e3d6000fd5b505050506040513d601f19601f8201168201806040525081019061133d9190612dc2565b50600560003373ffffffffffffffffffffffffffffffffffffffff1673ffffffffffffffffffffffffffffffffffffffff1681526020019081526020016000206040518060600160405280868152602001848152602001600015158152509080600181540180825580915050600190039060005260206000209060030201600090919091909150600082015181600001556020820151816001015560408201518160020160006101000a81548160ff021916908315150217905550505050505050565b60045481565b6008602052816000526040600020818154811061142257600080fd5b9060005260206000209060040201600091509150508060000160009054906101000a900473ffffffffffffffffffffffffffffffffffffffff1690806001015490806002015490806003018054611478906127da565b80601f01602080910402602001604051908101604052809291908181526020018280546114a4906127da565b80156114f15780601f106114c6576101008083540402835291602001916114f1565b820191906000526020600020905b8154815290600101906020018083116114d457829003601f168201915b5050505050905084565b42600a600083815260200190815260200160002060060154600a6000848152602001908152602001600020600501546115349190612d62565b11611598576000600a600083815260200190815260200160002060070160006101000a81548160ff02191690831515021790555060006009600083815260200190815260200160002060040160146101000a81548160ff0219169083151502179055505b50565b600560205281600052604060002081815481106115b757600080fd5b9060005260206000209060030201600091509150508060000154908060010154908060020160009054906101000a900460ff16905083565b60096020528060005260406000206000915090508060000154908060010160009054906101000a900473ffffffffffffffffffffffffffffffffffffffff16908060020154908060030154908060040160009054906101000a900473ffffffffffffffffffffffffffffffffffffffff16908060040160149054906101000a900460ff16905086565b6007602052816000526040600020818154811061169457600080fd5b9060005260206000209060040201600091509150508060000160009054906101000a900473ffffffffffffffffffffffffffffffffffffffff16908060010154908060020154908060030180546116ea906127da565b80601f0160208091040260200160405190810160405280929190818152602001828054611716906127da565b80156117635780601f1061173857610100808354040283529160200191611763565b820191906000526020600020905b81548152906001019060200180831161174657829003601f168201915b5050505050905084565b60066020528060005260406000206000915090505481565b6000600160009054906101000a900473ffffffffffffffffffffffffffffffffffffffff1673ffffffffffffffffffffffffffffffffffffffff163373ffffffffffffffffffffffffffffffffffffffff16146117e157600080fd5b6000600360009054906101000a900473ffffffffffffffffffffffffffffffffffffffff1673ffffffffffffffffffffffffffffffffffffffff166323b872dd3386600454876118319190612def565b6040518463ffffffff1660e01b815260040161184f93929190612bf6565b6020604051808303816000875af115801561186e573d6000803e3d6000fd5b505050506040513d601f19601f820116820180604052508101906118929190612dc2565b9050600060405180608001604052803373ffffffffffffffffffffffffffffffffffffffff168152602001878152602001600454866118d19190612def565b81526020016040518060600160405280602d8152602001612f18602d913981525090506008600087815260200190815260200160002081908060018154018082558091505060019003906000526020600020906004020160009091909190915060008201518160000160006101000a81548173ffffffffffffffffffffffffffffffffffffffff021916908373ffffffffffffffffffffffffffffffffffffffff160217905550602082015181600101556040820151816002015560608201518160030190816119a191906129ad565b505050600760008673ffffffffffffffffffffffffffffffffffffffff1673ffffffffffffffffffffffffffffffffffffffff16815260200190815260200160002081908060018154018082558091505060019003906000526020600020906004020160009091909190915060008201518160000160006101000a81548173ffffffffffffffffffffffffffffffffffffffff021916908373ffffffffffffffffffffffffffffffffffffffff16021790555060208201518160010155604082015181600201556060820151816003019081611a7d91906129ad565b50505081925050509392505050565b6000600560003373ffffffffffffffffffffffffffffffffffffffff1673ffffffffffffffffffffffffffffffffffffffff16815260200190815260200160002090506000805b8280549050811015611c2f576000838281548110611af457611af3612e31565b5b906000526020600020906003020190508060020160009054906101000a900460ff16158015611b27575080600101544210155b15611c1b576000606460058360000154611b419190612def565b611b4b9190612b11565b90508084611b599190612d62565b935060018260020160006101000a81548160ff021916908315150217905550600360009054906101000a900473ffffffffffffffffffffffffffffffffffffffff1673ffffffffffffffffffffffffffffffffffffffff1663a9059cbb33836040518363ffffffff1660e01b8152600401611bd5929190612e60565b6020604051808303816000875af1158015611bf4573d6000803e3d6000fd5b505050506040513d601f19601f82011682018060405250810190611c189190612dc2565b50505b508080611c2790612bae565b915050611ad3565b505050565b600260005403611c79576040517f08c379a0000000000000000000000000000000000000000000000000000000008152600401611c7090612ed5565b60405180910390fd5b6002600081905550565b6001600081905550565b6040518061010001604052806000815260200160008152602001600073ffffffffffffffffffffffffffffffffffffffff168152602001606081526020016060815260200160008152602001600081526020016000151581525090565b6000604051905090565b600080fd5b600080fd5b6000819050919050565b611d1181611cfe565b8114611d1c57600080fd5b50565b600081359050611d2e81611d08565b92915050565b600060208284031215611d4a57611d49611cf4565b5b6000611d5884828501611d1f565b91505092915050565b611d6a81611cfe565b82525050565b600073ffffffffffffffffffffffffffffffffffffffff82169050919050565b6000611d9b82611d70565b9050919050565b611dab81611d90565b82525050565b600081519050919050565b600082825260208201905092915050565b60005b83811015611deb578082015181840152602081019050611dd0565b60008484015250505050565b6000601f19601f8301169050919050565b6000611e1382611db1565b611e1d8185611dbc565b9350611e2d818560208601611dcd565b611e3681611df7565b840191505092915050565b60008115159050919050565b611e5681611e41565b82525050565b600061010082019050611e72600083018b611d61565b611e7f602083018a611d61565b611e8c6040830189611da2565b8181036060830152611e9e8188611e08565b90508181036080830152611eb28187611e08565b9050611ec160a0830186611d61565b611ece60c0830185611d61565b611edb60e0830184611e4d565b9998505050505050505050565b611ef181611d90565b8114611efc57600080fd5b50565b600081359050611f0e81611ee8565b92915050565b600060208284031215611f2a57611f29611cf4565b5b6000611f3884828501611eff565b91505092915050565b600081519050919050565b600082825260208201905092915050565b6000819050602082019050919050565b611f7681611cfe565b82525050565b611f8581611e41565b82525050565b606082016000820151611fa16000850182611f6d565b506020820151611fb46020850182611f6d565b506040820151611fc76040850182611f7c565b50505050565b6000611fd98383611f8b565b60608301905092915050565b6000602082019050919050565b6000611ffd82611f41565b6120078185611f4c565b935061201283611f5d565b8060005b8381101561204357815161202a8882611fcd565b975061203583611fe5565b925050600181019050612016565b5085935050505092915050565b6000602082019050818103600083015261206a8184611ff2565b905092915050565b6000806040838503121561208957612088611cf4565b5b600061209785828601611d1f565b92505060206120a885828601611d1f565b9150509250929050565b60006020820190506120c76000830184611d61565b92915050565b6120d681611d90565b82525050565b600082825260208201905092915050565b60006120f882611db1565b61210281856120dc565b9350612112818560208601611dcd565b61211b81611df7565b840191505092915050565b60006101008301600083015161213f6000860182611f6d565b5060208301516121526020860182611f6d565b50604083015161216560408601826120cd565b506060830151848203606086015261217d82826120ed565b9150506080830151848203608086015261219782826120ed565b91505060a08301516121ac60a0860182611f6d565b5060c08301516121bf60c0860182611f6d565b5060e08301516121d260e0860182611f7c565b508091505092915050565b600060208201905081810360008301526121f78184612126565b905092915050565b600081519050919050565b600082825260208201905092915050565b6000819050602082019050919050565b600060808301600083015161224360008601826120cd565b5060208301516122566020860182611f6d565b5060408301516122696040860182611f6d565b506060830151848203606086015261228182826120ed565b9150508091505092915050565b600061229a838361222b565b905092915050565b6000602082019050919050565b60006122ba826121ff565b6122c4818561220a565b9350836020820285016122d68561221b565b8060005b8581101561231257848403895281516122f3858261228e565b94506122fe836122a2565b925060208a019950506001810190506122da565b50829750879550505050505092915050565b6000602082019050818103600083015261233e81846122af565b905092915050565b600061235182611d70565b9050919050565b61236181612346565b82525050565b600060208201905061237c6000830184612358565b92915050565b600061238d82611d90565b9050919050565b61239d81612382565b81146123a857600080fd5b50565b6000813590506123ba81612394565b92915050565b600080fd5b600080fd5b7f4e487b7100000000000000000000000000000000000000000000000000000000600052604160045260246000fd5b61240282611df7565b810181811067ffffffffffffffff82111715612421576124206123ca565b5b80604052505050565b6000612434611cea565b905061244082826123f9565b919050565b600067ffffffffffffffff8211156124605761245f6123ca565b5b61246982611df7565b9050602081019050919050565b82818337600083830152505050565b600061249861249384612445565b61242a565b9050828152602081018484840111156124b4576124b36123c5565b5b6124bf848285612476565b509392505050565b600082601f8301126124dc576124db6123c0565b5b81356124ec848260208601612485565b91505092915050565b60008060008060008060c0878903121561251257612511611cf4565b5b600061252089828a016123ab565b965050602061253189828a01611d1f565b955050604061254289828a01611d1f565b945050606087013567ffffffffffffffff81111561256357612562611cf9565b5b61256f89828a016124c7565b935050608087013567ffffffffffffffff8111156125905761258f611cf9565b5b61259c89828a016124c7565b92505060a06125ad89828a01611d1f565b9150509295509295509295565b60006080820190506125cf6000830187611da2565b6125dc6020830186611d61565b6125e96040830185611d61565b81810360608301526125fb8184611e08565b905095945050505050565b6000806040838503121561261d5761261c611cf4565b5b600061262b85828601611eff565b925050602061263c85828601611d1f565b9150509250929050565b600060608201905061265b6000830186611d61565b6126686020830185611d61565b6126756040830184611e4d565b949350505050565b6000819050919050565b60006126a261269d61269884611d70565b61267d565b611d70565b9050919050565b60006126b482612687565b9050919050565b60006126c6826126a9565b9050919050565b6126d6816126bb565b82525050565b600060c0820190506126f16000830189611d61565b6126fe60208301886126cd565b61270b6040830187611d61565b6127186060830186611d61565b6127256080830185612358565b61273260a0830184611e4d565b979650505050505050565b60008060006060848603121561275657612755611cf4565b5b600061276486828701611d1f565b935050602061277586828701611eff565b925050604061278686828701611d1f565b9150509250925092565b60006020820190506127a56000830184611e4d565b92915050565b7f4e487b7100000000000000000000000000000000000000000000000000000000600052602260045260246000fd5b600060028204905060018216806127f257607f821691505b602082108103612805576128046127ab565b5b50919050565b60008190508160005260206000209050919050565b60006020601f8301049050919050565b600082821b905092915050565b60006008830261286d7fffffffffffffffffffffffffffffffffffffffffffffffffffffffffffffffff82612830565b6128778683612830565b95508019841693508086168417925050509392505050565b60006128aa6128a56128a084611cfe565b61267d565b611cfe565b9050919050565b6000819050919050565b6128c48361288f565b6128d86128d0826128b1565b84845461283d565b825550505050565b600090565b6128ed6128e0565b6128f88184846128bb565b505050565b5b8181101561291c576129116000826128e5565b6001810190506128fe565b5050565b601f821115612961576129328161280b565b61293b84612820565b8101602085101561294a578190505b61295e61295685612820565b8301826128fd565b50505b505050565b600082821c905092915050565b600061298460001984600802612966565b1980831691505092915050565b600061299d8383612973565b9150826002028217905092915050565b6129b682611db1565b67ffffffffffffffff8111156129cf576129ce6123ca565b5b6129d982546127da565b6129e4828285612920565b600060209050601f831160018114612a175760008415612a05578287015190505b612a0f8582612991565b865550612a77565b601f198416612a258661280b565b60005b82811015612a4d57848901518255600182019150602085019450602081019050612a28565b86831015612a6a5784890151612a66601f891682612973565b8355505b6001600288020188555050505b505050505050565b7f4e487b7100000000000000000000000000000000000000000000000000000000600052601160045260246000fd5b6000612ab982611cfe565b9150612ac483611cfe565b9250828203905081811115612adc57612adb612a7f565b5b92915050565b7f4e487b7100000000000000000000000000000000000000000000000000000000600052601260045260246000fd5b6000612b1c82611cfe565b9150612b2783611cfe565b925082612b3757612b36612ae2565b5b828204905092915050565b7f5072696365206d7573742062652067726561746572207468616e203000000000600082015250565b6000612b78601c83611dbc565b9150612b8382612b42565b602082019050919050565b60006020820190508181036000830152612ba781612b6b565b9050919050565b6000612bb982611cfe565b91507fffffffffffffffffffffffffffffffffffffffffffffffffffffffffffffffff8203612beb57612bea612a7f565b5b600182019050919050565b6000606082019050612c0b6000830186611da2565b612c186020830185611da2565b612c256040830184611d61565b949350505050565b6000606082019050612c426000830186611d61565b612c4f6020830185611d61565b612c5c6040830184611d61565b949350505050565b7f416d6f756e74206d7573742062652067726561746572207468616e207a65726f600082015250565b6000612c9a602083611dbc565b9150612ca582612c64565b602082019050919050565b60006020820190508181036000830152612cc981612c8d565b9050919050565b7f4c6f636b206475726174696f6e206d757374206265206772656174657220746860008201527f616e207a65726f00000000000000000000000000000000000000000000000000602082015250565b6000612d2c602783611dbc565b9150612d3782612cd0565b604082019050919050565b60006020820190508181036000830152612d5b81612d1f565b9050919050565b6000612d6d82611cfe565b9150612d7883611cfe565b9250828201905080821115612d9057612d8f612a7f565b5b92915050565b612d9f81611e41565b8114612daa57600080fd5b50565b600081519050612dbc81612d96565b92915050565b600060208284031215612dd857612dd7611cf4565b5b6000612de684828501612dad565b91505092915050565b6000612dfa82611cfe565b9150612e0583611cfe565b9250828202612e1381611cfe565b91508282048414831517612e2a57612e29612a7f565b5b5092915050565b7f4e487b7100000000000000000000000000000000000000000000000000000000600052603260045260246000fd5b6000604082019050612e756000830185611da2565b612e826020830184611d61565b9392505050565b7f5265656e7472616e637947756172643a207265656e7472616e742063616c6c00600082015250565b6000612ebf601f83611dbc565b9150612eca82612e89565b602082019050919050565b60006020820190508181036000830152612eee81612eb2565b905091905056fe4920616d20636c61696d696e6720496e737572616e636520666f72206d7920636172596f757220636c61696d20666f7220496e737572616e636520697320617070726f76656420616e642073656e74a264697066735822122060b72822103af682502acafd82b978638ab71d055a7f8b6ad97c29ab4725824364736f6c63430008120033",
  "linkReferences": {},
  "deployedLinkReferences": {}
}